:0200000280007C
:10000000D0E50720ED210800E9210800E9210800DA
:10001000E9210800E9210800E921080000000000AA
:100020000000000000000000000000009102080035
:10003000E921080000000000110308004D0308003A
:10004000E9210800E9210800E9210800E921080068
:10005000E9210800E9210800E9210800E921080058
:10006000E9210800E9210800000000005D200800E7
:100070007120080085200800992008000000000079
:1000800000000000E9210800E9210800E92108003A
:10009000E9210800E9210800E9210800E921080018
:1000A000E921080000000000E9210800E92108001A
:1000B000E9210800E9210800E9210800E9210800F8
:1000C000E9210800E9210800E9210800E9210800E8
:1000D000E9210800E9210800E9210800E9210800D8
:1000E000E9210800E9210800E9210800E9210800C8
:1000F000E921080010B5054C237833B9044B13B13E
:100100000448AFF300800123237010BD000B0720CB
:1001100000000000447108000C4B43B10C4810B5BE
:100120000C49AFF300800C48036823B910BD0A489E
:10013000036833B97047094B002BF7D0BDE8104076
:100140001847064B002BF5D0184700BF00000000F1
:1001500044710800040B07204471080000000000EF
:100160002DE9F04180B90C469046002A0FDD8F182A
:10017000084E094D306821462B6898470134BC422F
:10018000F8D14046BDE8F0814FF0FF38F9E78046EE
:10019000F7E700BFE0AD0720D8AD0720436913F0B3
:1001A000020F1DBFC1F30801C1610020012070478B
:1001B000436913F0010F05D08369C3F308030B6093
:1001C000002070470120704700F1080343604FF0A2
:1001D000FF328260C3600361002303607047002325
:1001E0000361704743685A684A6042688A605A6887
:1001F0009160596041600861036801330360704792
:1002000010B40C68B4F1FF3F15D000F10803C268C8
:100210001268944204D35B685A6812689442FAD216
:100220005A684A6091608B605960086103680133C5
:10023000036010BC70470369F2E7436882689A6004
:10024000836842685A6003695A68904204BF8268B2
:100250005A60002202611A68013A1A6018687047F1
:1002600003480068006880F3088862B600DF00BFBA
:1002700008ED00E04FF0807340F8043C40F8081CA3
:10028000002340F80C3C40F8202C40387047000018
:10029000064B19680868B0E8F00F80F309884FF042
:1002A000000080F311884EF00D0E704728AB072038
:1002B0004FF08052014B1A60704700BF04ED00E020
:1002C000EFF311804FF0A00181F3118870470020F7
:1002D00008B5034B9847034A13680133136008BD00
:1002E000C10208002C01072080F31188704700002C
:1002F00008B5054A1368013B136003B108BD00202F
:10030000024B9847FAE700BF2C010720E9020800DA
:10031000EFF309800C4B1A6820E9F00F10602DE90B
:1003200008404FF0A00080F3118801F0A7F84FF0CB
:10033000000080F31188BDE8084019680868B0E83B
:10034000F00F80F30988704728AB072008B54FF0FD
:100350008052054B1A60054B9847054B9847002083
:10036000044B984708BD00BF04ED00E0C10208003F
:100370000D110800E9020800034A044B1A60072225
:10038000043B1A60704700BF1F48010014E000E002
:1003900010B5094B1A6842F470021A601A6842F0EC
:1003A00070421A60054B98470024054B1C60054BB2
:1003B0009847204610BD00BF20ED00E079030800FB
:1003C0002C0107206102080010B4134A00E01A460D
:1003D00013688342FBD351685418A04209D0416886
:1003E0004418A3420AD00360904218BF106010BCAA
:1003F00070474068014451601046F0E7074C24689C
:10040000A34206D05B681944416013681B6803600F
:10041000EAE70360E8E700BF20AB07201C0B0720DA
:1004200038B504462C4B98472C4B1B688BB1002CDD
:100430004BD004F1100212F0070F1CBF22F007028C
:100440000832511E49F6FE7399423BD824490C6884
:1004500016E0234A234B13600021516049F6F072E5
:1004600098181E4D286049F6F475595199505A60F4
:1004700018601D4A1368103B1360D8E721461C46DC
:1004800063689A4202D92368002BF7D1134B1B688B
:100490009C4217D00D68103523680B6063689B1A67
:1004A000202B09D8104A136861685B1A13600F4B40
:1004B000984765B1284638BDA018436062600C4B70
:1004C0009847EFE7094B984701E0084B9847094BDD
:1004D00098470025EEE700BFDD1008001C0B072041
:1004E00020AB0720200B0720300107206D120800E9
:1004F000C90308004936080080B110B50446084B0E
:100500009847084A54F80C3C11680B441360A4F156
:100510001000054B9847054B984710BD704700BF2A
:10052000DD10080030010720C90308006D12080023
:1005300010B50446036C5BB903681BB1A36B0133B0
:10054000A36310BD4068124B984700236360F5E732
:100550006AB91A4680680F4B9847A368226C134407
:10056000A36062689342E9D32368A360E6E71A4672
:10057000C068084B9847226C5242E3681344E3601A
:1005800021688B42DAD263681A44E260D6E700BF82
:1005900061180800C536080038B50346006858B130
:1005A0001A6CDC681444DC605D68AC4228BFD8601B
:1005B0000846D968014B984738BD00BFC5360800CA
:1005C000F8B504461F4B9847A36C002B14DD636AF3
:1005D00093B104F124061C4D1C4F07E0A36C013BB2
:1005E000A364A36C002B07DD636A2BB13046A847D8
:1005F0000028F3D0B847F1E74FF0FF33A364144B62
:100600009847104B9847636C002B14DD236993B116
:1006100004F110060C4D0D4F07E0636C013B636461
:10062000636C002B07DD23692BB13046A8470028F7
:10063000F3D0B847F1E74FF0FF336364044B9847BA
:10064000F8BD00BFD10208000516080049170800D0
:10065000F102080038B508B30D460446174B984719
:100660002268216CE36B03FB01F3D018606000206B
:10067000A063A2605B1A1344E3604FF0FF3363642E
:10068000A36495B923692BB104F110000C4B984772
:10069000012807D00B4B9847012038BD0A4B9847DB
:1006A00000BFFDE7094B9847F4E704F11000084D3F
:1006B000A84704F12400A847ECE700BFD1020800D6
:1006C00005160800F1020800C1020800B102080086
:1006D000C90108002DE9F84300284BD00E46154605
:1006E00007465020254B98470446002842D006FB79
:1006F00007F00130214B9847206000282FD0E76396
:100700002664012120461E4B984784F84D50204610
:100710001C4FB8471C4E305C1C4B984784F84C006B
:100720002046B847355C1835EDB22046B84716F874
:1007300000902046DFF86880C047024649462846B8
:10074000134B98472046B847355C2046C0470022E7
:10075000014628460F4B98472046BDE8F8830A4BD0
:10076000595D01F140000022C0B2094B9847204674
:10077000094B9847094B984700BFFDE72104080043
:1007800055060800F9300800400107203D26080002
:10079000912B08001D2F0800F9040800C102080071
:1007A000ED3008002DE9F04F85B00192009340B183
:1007B0008846044649B10027694EDFF8E4B1694D27
:1007C00067E0694B984700BFFDE7036C1BB1664BC0
:1007D000984700BFFDE70027EEE72046DFF8A89125
:1007E000C847624F3D5C2035EDB22046C84717F838
:1007F00000A020465E4EB0470246514628465D4B5B
:1008000098472046C8473D5C2046B04706462046EC
:10081000C8473B5C022B1DBFA26B0132D2B2002243
:1008200031462846544B9847009A41462046534B40
:100830009847636A2BB94B4B9847012005B0BDE838
:10084000F08F04F124004E4B98470128F3D14D4B13
:100850009847F0E7434B984720464B4FB847434EE5
:10086000355C4835EDB22046B847365C2046404BF3
:1008700098470246314628463E4B98470020DDE720
:1008800002A8D8470FE02046404B9847404B984776
:100890000127B047A26BE36B9A429ED3019B002BCA
:1008A000D8D0002FECD0A8473A4B9847B047636C9C
:1008B000B3F1FF3F04BF00236364A36CB3F1FF3FB8
:1008C00004BF0023A364A84701A902A8324B98479C
:1008D00000282BD1B047D4F83890E76BA847B9452A
:1008E000D1D12046DFF8A0A0D047DFF8809019F8DA
:1008F00000707037FFB22046D04719F800902046AC
:100900001B4B98470246494638461A4B984701996F
:1009100004F11000214B984720461C4B98471C4B74
:1009200098470028B4D1174B9847B1E72046174B9A
:100930009847174B98472046134FB8470B4E355CE6
:100940004835EDB22046B847365C2046084B9847FC
:10095000024631462846074B984700206EE700BF05
:10096000D1020800F1020800C1020800400107207E
:10097000ED300800912B08001D2F080031050800FC
:1009800005160800B1020800F9300800C10508008A
:100990006D120800DD100800C516080035150800A6
:1009A0009D1608002DE9F04F83B0019300284AD02E
:1009B000894690460446002949D0384B9847009014
:1009C000A26BE36B9A424ED22046354FB847354E64
:1009D000355C3035EDB22046B84716F800B02046F9
:1009E000DFF8D8A0D0470246594628462E4B9847F4
:1009F0002046B847355C2046D047A26B0132D2B2C0
:100A000001462846294B9847019A49462046284BDB
:100A10009847A36CB3F1FF3F20D1636A002B36D017
:100A200004F12400234B9847002832D0B8F1000F7E
:100A300031D00124C8F8004000981F4B9847204649
:100A400003B0BDE8F08F154B984700BFFDE7036C7E
:100A5000002BB2D0114B984700BFFDE7A36C0133C8
:100A6000A3640124E8E720460D4FB8470D4E355CDE
:100A70005835EDB22046B847365C20460F4B9847B4
:100A8000024631462846084B98470024D4E7012403
:100A9000D2E70124D0E70124CEE700BFC10208005D
:100AA000F930080040010720912B08001D2F080095
:100AB0003105080005160800E9020800ED300800BD
:100AC0002DE9F04F87B001910392029340B10446A3
:100AD000019B4BB100278A4EDFF878A2894D9CE03C
:100AE000894B984700BFFDE7036C1BB1864B9847C5
:100AF00000BFFDE70027EEE7E76801992046834B3A
:100B00009847029B002B43D12046814FB847814E26
:100B1000355C2835EDB22046B84716F800902046DF
:100B2000DFF81082C0470246494628467A4B98476C
:100B30002046B847355C2046C04780462046B84727
:100B4000335C022B20D1754B9847754B9847024672
:100B500041462846734B9847A36B013BA363236828
:100B600013B9714B9847606023693BB104F11000E1
:100B70006E4B9847012801D16D4B9847614B9847C0
:100B8000012007B0BDE8F08FA26B013AD2B2DFE7D7
:100B90002046DFF87C81C0475E4E355C7835EDB28B
:100BA0002046C047365C2046624B98470246314695
:100BB0002846594B9847E760636A002BDED004F162
:100BC00024005A4B98470028D8D0594B9847D5E76E
:100BD0004C4B984720464E4FB8474E4E355C5035EB
:100BE000EDB22046B847365C2046524B9847024645
:100BF00031462846484B98470020C2E704A8D04712
:100C000015E0B04760684C4B9847A84750E0204635
:100C10004A4B98474A4B98470127B047A36B002B94
:100C20007FF46AAF039B002BD2D0002FE6D0A847F9
:100C3000444B9847B047636CB3F1FF3F04BF0023B8
:100C40006364A36CB3F1FF3F04BF0023A364A84710
:100C500003A904A83C4B9847002838D1B047A76B9C
:100C6000A847002FD3D12046DFF8A490C847DFF86B
:100C7000A48018F800706837FFB22046C84718F8FB
:100C800000B020462B4B9847024659463846224B27
:100C900098472046C84718F80030022B05D01F4B54
:100CA00098471F4B9847294B98472368002BA8D09B
:100CB000039904F12400264B984720461F4B984780
:100CC0001F4B98470028A7D1194B9847A4E7204607
:100CD0001A4B98471A4B984720460D4FB8470D4E70
:100CE000355C5035EDB22046B847365C2046114B96
:100CF0009847024631462846074B9847002040E770
:100D0000D1020800F1020800C1020800990508009C
:100D1000F930080040010720912B08001531080028
:100D2000053108001D2F080061170800051608008E
:100D3000B1020800ED3008008D170800C105080059
:100D40006D120800DD100800C5160800AD3008005F
:100D5000351508009D16080090F84C00704790F873
:100D60004D00704738B504460D460E4B9847636CEE
:100D7000B3F1FF3F04BF00236364A36CB3F1FF3FF3
:100D800004BF0023A364084B9847A36B1BB1204604
:100D9000064B984738BD294604F12400044B984778
:100DA000F5E700BFD1020800F1020800C105080004
:100DB0009515080010B50F4B1B6858600E4B1B684B
:100DC00098420ED304460D4B18680A4B196804313B
:100DD0000B4B98470B4B1B689C423CBF094B1C605C
:100DE00010BD094B1868034B19680431044B984730
:100DF00010BD00BF28AB072024AC07202CAB072078
:100E0000010208003401072030AB07202DE9F04F24
:100E100083B00C9D0D9FDDF83880019040B189466C
:100E200016469B46042D07D9724B984700BFFDE735
:100E3000704B984700BFFDE74C206F4B9847044626
:100E4000002855D0B8F1000F48D0C0F83080B2006B
:100E5000A5214046694B984706F18046013E236B29
:100E600003EB860323F0070604F134080A224946FF
:100E70004046634B9847002384F83D30E562A56403
:100E800004F104094846DFF8E4A1D04704F1180052
:100E9000D0472461C5F10503A36164625A460199F4
:100EA0003046584B9847206010F0070F28D107B103
:100EB0003C60554B9847554A136801331360544BB7
:100EC0001B680BB3534B1B68002B44D1504B1B6862
:100ED000DB6A9D4224BF4E4B1C603CE0B000464B99
:100EE0009847804620630028B1D120464A4B984756
:100EF000002203214320494B98474FF0FF3072E016
:100F00003C4B984700BFFDE7414B1C601368012B29
:100F100021D1434F3846434EB04707F11400B04744
:100F200007F12800B04707F13C00B04707F1500037
:100F3000B047DFF83CA15046B0473B4F3846B0477A
:100F40003A48B0473A48B0473A48B0473A4BC3F8F6
:100F500000A03A4B1F60E36A394A1268934284BF8B
:100F6000374A1360374A13682364013313602046FD
:100F7000354B9847354B9847E06A354B1B6898428C
:100F800084BF334B186000EB80004946244B03EBD1
:100F90008000304B984703202F4B984760642046D1
:100FA000294EB0474246014603202C4B9847204625
:100FB000B04794F82C2001460320294B984720463F
:100FC000B047024603211B20144B9847254B9847F6
:100FD000104B1B6853B10E4B1B68DB6A9D4207D94F
:100FE000214B9847012003B0BDE8F08F0120FAE7BC
:100FF0000120F8E7C102080021040800B137080009
:10100000053A080075020800D102080098AB0720D5
:1010100028AB0720F8AB0720F9040800912B080043
:1010200034AB0720C9010800C8AB0720E4AB072098
:1010300010AC0720FCAB07202CAB072030AB0720FF
:10104000B0AB0720A4AB072005310800DD2A08005B
:10105000ACAB0720E50108003D2608007127080019
:10106000692E0800F1020800B1020800DF01080043
:10107000B4AB072010B584B000230393029301930F
:10108000009382220D490E480E4CA047012802D041
:1010900080B104B010BD0C4B98470128F8D10B4B20
:1010A000984701220A4B1A6000220A4B1A600A4B29
:1010B0009847EEE7054B984700BFFDE784630800BB
:1010C000F51308000D0E0800A9190800C102080058
:1010D000F8AB072024AC072091030800024A1368EC
:1010E00001331360704700BFA0AB072010B5044B5D
:1010F0009847044B1C68044B9847204610BD00BF1E
:10110000D102080024AC0720F10208002DE9F041CB
:10111000464B1B68012B02D0454B1B6833B9454A2F
:101120001368013313600020434B98473F4B1A6804
:101130001B68002B73D1414B1A6801321A601B687F
:10114000ABB93F4B1B681B68002B28D13C4B19687F
:101150003C4A1068186011603B490A6801320A6015
:101160001B681B68FBB94FF0FF32384B1A60334BDA
:101170001A68364B1B689A4255D3314B1B681B6863
:10118000CBB12F4B1B68DB68DC6863682B4A1268A5
:10119000934216D82E4EDFF8D0802E4F35E02E4BDE
:1011A000984700BFFDE7264B1B68DB68DB685A6881
:1011B000264B1A60DBE74FF0FF32244B1A60BDE884
:1011C000F081224A1360BDE8F0812046C047B8474D
:1011D000E06A224B1B68984284BF204B186000EBEA
:1011E000800029461E4B03EB80001E4B9847144B92
:1011F0001B681B68002BDED0114B1B68DB68DC68AA
:1012000063680E4A12689342DBD8251D2846B04712
:10121000A36A002BD9D004F11800B047D5E7044ADF
:10122000136801331360BDE8F08100BFA0AB072055
:101230009CAB072098AD07202D2A080024AC07207E
:101240002CAB072030AB0720E0AB07203401072090
:101250003B020800DD2A0800C1020800ACAB0720F1
:1012600034AB0720E5010800053108002DE9F843FB
:10127000314B1B681BB9314B984700BFFDE7304B22
:1012800098472D4B1A68013A1A601B68002B51D100
:101290002C4B1B682BB100242B4F2C4EDFF8D89021
:1012A00028E000242A4B98472046BDE8F883FB68D5
:1012B000DD6805F11800B04705F104084046B04765
:1012C0002846C847234B9847E86A234B1B68984237
:1012D00084BF214B186000EB800041461F4B03EB9D
:1012E00080001F4B98471F4B1B68EA6ADB6A9A42D3
:1012F00028BF01243B68002BD9D11B4B1B6893B13D
:10130000194B1B6843B1194D174CA8472368013B83
:1013100023602368002BF8D10022154B1A60154B6F
:1013200098470124BEE7012CF6D0114B1B68012B16
:10133000B8D1F1E70024B5E7A0AB0720C10208004F
:10134000D102080098AB0720E4AB07203B0208005D
:10135000F1020800DD2A0800ACAB072034AB0720FF
:10136000E501080028AB07209CAB07200D11080001
:10137000DCAB0720B102080005310800F8B510B950
:10138000114B9847F8BD0446104B984721468920D9
:101390000F4B98470F4D28680F4FB8470F4EB04777
:1013A0000F4B9847B847B0470E4B1B681C44286842
:1013B00004300D4B984720460C4B98470C4B9847F0
:1013C0000028DFD1DCE700BFB1020800DD10080013
:1013D0009D2D080028AB072005310800AD3008001E
:1013E0001531080024AC07203B020800B50D0800A9
:1013F0006D12080080B5164DDFF87880154E24E098
:10140000154B1B68012B1ED82B68002BF8D0C0474A
:101410003468B847002CF7D0104B9847F368DC6865
:10142000201D0F4B98470F4A1368013B13602B6830
:10143000013B2B600C4B9847206BDFF83C90C84772
:101440002046C847E0E7094B9847094FDCE700BF53
:10145000A8AB072010AC072034AB0720D10208004E
:101460003B02080098AB0720F1020800B102080017
:101470006D120800DD100800F9040800244B1B68F9
:10148000EBB910B5234B1B6803EB83039B00224A87
:10149000D358C3B91F4B1B686BB11E4A1E49136852
:1014A000013B1360136803EB830351F8233053B9F6
:1014B0001368002BF3D1194B984700BFFDE70122B9
:1014C000174B1A607047134B1B68134A9900C818D2
:1014D00002EB8000446864684460194402460832A4
:1014E00094420FD003EB83030B4A02EB83035B6848
:1014F000DA680C4B1A600C4B98470C4B98470C4B16
:10150000984710BD6068044A02EB81025060E9E729
:10151000A0AB0720ACAB072034AB0720C10208000A
:10152000DCAB072028AB0720153108000531080087
:10153000D12F080038B590B10C460E4D29681831EE
:101540000D4B9847286804300C4B9847B4F1FF3F87
:1015500009D00B4B186820440A4B984738BD0A4BFA
:10156000984700BFFDE7296804310848084B9847B1
:1015700038BD00BF28AB0720010208003B0208006D
:1015800024AC0720B50D0800C1020800FCAB072001
:10159000E501080070B5E8B10E46104D2968183114
:1015A0000F4B9847286804300E4B98470E4B1C6829
:1015B0003444214688200D4B984728680C4EB0478C
:1015C0000C4DA8470C4B9847B047A84720460B4BFB
:1015D000984770BD0A4B984700BFFDE728AB07202E
:1015E000E50108003B02080024AC07209D2D0800FF
:1015F00005310800AD30080015310800B50D0800B0
:10160000C102080038B5C368DC68002C28D004F19A
:1016100018052846174B9847174B1B6823BB251DF9
:101620002846144B98472046144B9847144B98472C
:10163000E06A144B1B68984284BF124B186000EBA1
:1016400080002946104B03EB8000104B9847104B4D
:101650001B68E06ADB6A984234BF0020012038BD75
:101660000C4B984700BFFDE729460B48074B9847AE
:10167000EDE700BF3B020800A0AB072005310800E2
:10168000DD2A0800ACAB072034AB0720E5010800D9
:1016900028AB0720C1020800E4AB072008B530B131
:1016A000054A12680260054A1268426008BD044B90
:1016B000984700BFFDE700BFE0AB072024AC072040
:1016C000C102080038B5E8B10D460446F1B1184B27
:1016D00098472B68B3F1FF3F26D0164A126821685D
:1016E000914204D0144A1268616891421ED9124A8C
:1016F00012686168521A93420CD801240F4B984724
:10170000204638BD0E4B984700BFFDE70C4B98476D
:1017100000BFFDE7084A1268521A9B1A2B60204648
:10172000084B98470024E9E70024E7E70124E5E7B0
:10173000D1020800E0AB072024AC0720F10208002A
:10174000C10208009D1608000122014B1A60704773
:10175000DCAB072008B1406C7047002070470000E8
:10176000014B1868704700BF28AB0720054B1B686A
:1017700033B1054B1B68002B0CBF012002207047C2
:1017800000207047F8AB0720A0AB0720002851D0FD
:1017900070B50446C36A284A1268D26A93422BD2B3
:1017A000254A1268D26AC2F10502826103EB830303
:1017B000224A02EB830342699A421ED01E4B1B68E9
:1017C000DB6AC36220461E4DA84706462046A8474E
:1017D000014603201B4B98470346324603218E20C7
:1017E000194EB0472046A847134B1B6893F82C208E
:1017F00001460320154B984770BD051D2846144B24
:1018000098470D4B1B68DB6AE36220460C4B9847F8
:10181000104B9847E06A104B1B68984284BF0E4BF0
:10182000186000EB80002946044B03EB80000B4B53
:101830009847C7E7704700BF28AB072034AB0720A5
:1018400005310800C12E0800892C0800692E080007
:101850003B020800DD2A0800ACAB0720E5010800C8
:1018600000283AD0F8B50446C26A836C9A4233D055
:10187000061D3046194B98472046194DA847074684
:101880002046A84701460320164B984703463A4690
:1018900003218F20144FB8472046A84794F84820CA
:1018A00001460320114B9847A36CE362C3F1050383
:1018B000A3612046A8470E4B9847E06A0D4B1B6872
:1018C000984284BF0B4B186000EB800031460A4BF6
:1018D00003EB8000094B9847F8BD70473B020800B6
:1018E00005310800C12E0800892C0800692E080067
:1018F000DD2A0800ACAB072034AB0720E501080067
:1019000008B54160006191420CD8D21A83699A42AD
:1019100001D3012008BD011D094B1868094B9847E8
:10192000002008BD9A4201D2994206D2011D064B01
:101930001868044B9847002008BD012008BD00BF6F
:101940002CAC07200102080028AC072070B50D4B15
:1019500098470D4B1B6813B10C4B984770BD0C4D4D
:1019600028460C4EB0470C4C2046B0470B4B1D6030
:101970000B4B1C6000220C2105200A4B9847024BA0
:101980001860E9E7D10208005CAC0720F10208000A
:1019900030AC0720C901080044AC072028AC072060
:1019A0002CAC0720D506080010B584B00C4B984726
:1019B0000C4B1B687BB10023039302930A4A0192EC
:1019C000042200924FF4827208490948094CA0474A
:1019D00008B104B010BD084B984700BFFDE700BF39
:1019E0004D1908005CAC072060AC07208C63080030
:1019F000011B08000D0E0800C102080030B585B0BB
:101A00000F4C2568D5B11C460191029203903BB161
:101A10000023224601A928460A4CA04705B030BD44
:101A2000094B984701284FF000030CBF089A1A464B
:101A300001A903480068054CA047EFE70020EDE747
:101A40005CAC0720A50908006D170800A507080071
:101A50002DE9F04782B08146214B98478046214BC3
:101A60001B68984215D30023C9F800301D4BC3F8FA
:101A70000080404602B0BDE8F087002100910B468F
:101A800052462046184CA04728B9184B984700BF2B
:101A9000FDE7174E174F33681A68C2B1DA68D2F8FB
:101AA00000A0DB68DC68251D2846B847636A20462D
:101AB0009847E369012BEED1A36953449A45DCD2E0
:101AC00063602461294630680B4B9847E3E70B4A73
:101AD00010680749086013600123C9F80030C5E7A2
:101AE000ED10080058AC0720FD190800C1020800DD
:101AF00028AC07203B020800010208002CAC07209C
:101B00002DE9F04186B0DFF868814D4B1B681A68FB
:101B1000002A00F08980DB681D684A4B984703A8BB
:101B2000494B98470646039B002B40F08680A8420D
:101B30000FD2A91B454B1868454B9847454B984712
:101B400008B9454B984702A83F4B984707463F4E78
:101B500036E0404B98473A4B1B68DB68DC68201D39
:101B6000C047E369012B14D1A1692B4632462944B1
:101B700020463A4EB04701280BD1002100910B4678
:101B80002A462046364DA84718B9364B984700BF1D
:101B9000FDE7636A20469847D5E70025C9E7049921
:101BA000A16131B13B463A46394420462B4CA0470F
:101BB00006E02C4B984700BFFDE720462A4B98478C
:101BC0002A4D00231A4603A93068A84700289CD054
:101BD000059C1CB163690BB1201DC047039B022B00
:101BE000DDD0032BE9D0002BEBD10499A0690B4683
:101BF0003A4601442046194DA8470128E0D1636ABE
:101C000020469847E369012BDAD1A26900210091AF
:101C10000B46049802442046114CA0470028CFD11F
:101C2000104B984700BFFDE7064B984703A8064BAB
:101C300098470646039B002BAFD0064B984782E798
:101C400028AC0720DD100800511A08005CAC072002
:101C5000650D08006D120800B102080001190800A6
:101C6000FD190800C1020800F9040800C10A0800B3
:101C70003B0208000138022815D82DE9F0410E4634
:101C800014469AB10D46DFF838800C4FD8F80000A2
:101C900015F8011B3B68984700280ADBA81B013C8C
:101CA000F4D1BDE8F0814FF0FF3070471046BDE839
:101CB000F0814FF0FF30BDE8F08100BFDCAD0720C0
:101CC000E0AD072010B4AC2303600B684A68B3FB97
:101CD000F2F31B095C1E4FF6FE7294420BD80362AE
:101CE0008B68436040F20223C0F820315023036028
:101CF000002010BC70470120FBE7436913F0020F7E
:101D00001ABFC161002001207047436913F0010F21
:101D10001DBF83690B7000200120704710B50E486D
:101D20000E4B98473E2100200D4B98470D4CA04785
:101D30000028FCD00C4B98470C4A0D4B9A620D4C76
:101D4000A0470028FCD010200B4B98470B4B98471E
:101D50000148024B984710BD00BD0105A5000720B2
:101D6000112108006521080075210800013F0D20A0
:101D700000060E4085210800AD20080085220800DD
:101D800010B54FF40042164B5A600B20154CA0477B
:101D90000C20A0470D20A0470E20A0474FF0605117
:101DA0003B20114CA0474FF060515520A0474FF009
:101DB00060515620A0470D496820A0470C495C207F
:101DC000A0470C4A4FF440710B480C4B98474FF01A
:101DD00000612B20A0474FF000612A20A04710BDD2
:101DE000501A0E4095210800A11E08007900002815
:101DF0000100002801000008000E0E40711F0800BD
:101E00004264B1F1805F16D00BD849B1B1F1006FD7
:101E100005D1036F016F0B4023EA020303674260A1
:101E20007047B1F1405FFBD0B1F1605FF8D0B1F124
:101E3000205FF4D17047036F13430367EFE74164FA
:101E400012F0010F14BF4166016612F00A0F14BFB1
:101E50000162416212F0020F07D112F0080F18BFA1
:101E6000C0F88410416101607047C0F88010F9E744
:101E700010B4019C416444B9016643B1016542B9A3
:101E800041630161016010BC70474166F5E741653F
:101E9000F5E70163F5E7C06C7047806C70470000A0
:101EA00070B582B00D46430903F5001303F20773C2
:101EB0005C0201F0F043B3F1205F31D016D8B3F1EA
:101EC000006F1BD0B3F1805F16D100F01F00012618
:101ED000864032464FF080512046224B984715F0FD
:101EE000010F14BF66662666012017E0B3F1405F5C
:101EF00021D0B3F1605F1ED000200FE000F01F0082
:101F00000126864032464FF000612046154B984727
:101F100015F0010F14BF66662666012002B070BD81
:101F200000F01F0101262A4606FA01F120460E4B59
:101F300098473046F2E705F0605200F01F01012695
:101F400005EA06030093C5F38003B2F1605F14BF96
:101F50000022012206FA01F12046044CA047304637
:101F6000DCE700BF011E08003F1E0800711E0800CC
:101F700070B582B005460E46144602F0F043B3F148
:101F8000205F27D011D8B3F1006F16D0B3F1805F76
:101F900011D10A464FF08051194B984714F0010FA8
:101FA00014BF6E662E66012012E0B3F1405F15D0BB
:101FB000B3F1605F12D000200AE00A464FF00061E2
:101FC0000F4B984714F0010F14BF6E662E66012068
:101FD00002B070BD0B4B98470120F9E704F0605246
:101FE00004F001030093C4F38003B2F1605F14BFF7
:101FF0000022012231462846034CA0470120E7E792
:10200000011E08003F1E0800711E08002DE9F04166
:10201000044688460E4B9847054620460D4B984788
:10202000054013D00C4C04F1600603E0B4420DD01F
:1020300010345DB120684045F8D161682942F5D07F
:10204000E3689847636825EA0305EFE7BDE8F08198
:10205000971E08009B1E080064AC072008B50B21E2
:102060000148024B984708BD000E0E400D200800A5
:1020700008B50C210148024B984708BD00100E40DE
:102080000D20080008B50D210148024B984708BDF6
:1020900000120E400D20080008B50E210148024B29
:1020A000984708BD00140E400D200800174A136B16
:1020B00023F0700318431063936E13F0080F0AD1D6
:1020C0004FF4006311498A6E12F0080F03D1013BEF
:1020D000F9D1012070470D4A136B23F0030343F03D
:1020E00002031363936E13F0080F0AD14FF40063D9
:1020F00006498A6E12F0080F05D1013BF9D1012083
:102100007047002070470020704700BF00060E4057
:10211000C8B9114A136A090289B223F45C1323F087
:10212000030343F45C1343F001030B431362936E08
:1021300013F0010FFBD0084A136A43F09B7343F47A
:1021400080331362704704490B6A044A1A40044BF7
:1021500013430B62704700BF00060E40FCFFC8FE31
:1021600002003701024B986E00F48030704700BFC8
:1021700000060E404FF00052014B9A62704700BFBC
:1021800000060E40024B986E00F00200704700BF40
:1021900000060E402C281ED81F280CD8114B9A6917
:1021A00001238340934318D0012303FA00F00D4B21
:1021B00018610020704720380A4BD3F8082101230A
:1021C000834093430BD0012303FA00F0054BC3F87F
:1021D0000001002070470120704700207047002058
:1021E000704700BF00060E40FEE7000008B51C4B1C
:1021F0001C4A9A4210D01C4B194A9A420CD2013BFD
:102200009B1A23F0030304331344164951F8040BBB
:1022100042F8040B9A42F9D1144B154A9A420AD259
:10222000013B9B1A23F0030304331344002142F8BB
:10223000041B9342FBD10F4B23F0604222F07F023C
:102240000D498A6003F16043B3F5801F03D28B68A8
:1022500043F000538B60094B9847094B9847FEE7C2
:102260000000072044710800FC0A0720CCC50720A5
:10227000000B07200000080000ED00E04D360800CC
:102280005D3508003D4B1B6B03F00303032B0ED899
:10229000DFE803F0021C3838394B5B6913F0800F1C
:1022A00014BF4FF400424FF4FA42364B1A60334BDE
:1022B0001B6B03F07003702B57D0304B1A6B3149F6
:1022C000C2F302120B68D3400B6070472B4B1B6AA2
:1022D00013F0807F03D02C4A2A4B1A60E7E72B4A81
:1022E000284B1A60254B1B6A03F07003102B05D096
:1022F000202BDCD1244A234B1A60D8E7244A214BF7
:102300001A60D4E71D4B1B6A13F0807F0CD01E4A65
:102310001C4B1A60194B1B6B03F00303022B16D0E6
:102320001C4A184B1A60C2E7184A164B1A60134B26
:102330001B6A03F07003102B05D0202BEAD1124A40
:10234000104B1A60E6E7124A0E4B1A60E2E70B4A9E
:10235000916A926A0B48C1F30A41036801FB033397
:10236000D2B2B3FBF2F30360A1E7064A13680A494D
:10237000A1FB03135B081360704700BF00060E400B
:10238000101A0E4038010720001BB70000093D005D
:1023900000127A00001C4E0EABAAAAAA0A4B1B68B8
:1023A00053B1094B1B681A180849914208DB1046C3
:1023B000054A106018467047054A034B1A60F0E75B
:1023C0004FF0FF30704700BFD4AC0720FC7F0820DF
:1023D000D0E507204FF0FF3070474FF400534B60BB
:1023E00000207047012070470020704710B548B1A9
:1023F00001460E4B1C684CB1002323630C4B1B6839
:1024000043B110BD0B48FFF7F1FF10BD0A48FFF7BD
:10241000EDFF10BD064B1860502204F2DC70074B34
:1024200098470123C4F8D437EBE700BFD8AC0720A6
:1024300080AD07201065080038650800053A0800DF
:102440002DE9F84F4D4B1A684D4B1B6813444D4A0C
:1024500013604D4D4D4C2C604FF4BF52002120466F
:102460004B4B98474FF0010363700223A370032383
:10247000E370702323714FF0710A84F805A04FF0C8
:10248000720984F806904FF0730884F80780F023EF
:102490002372F1276772F226A6724FF0F30B84F8CD
:1024A0000BB041F6A123A3810423A3734FF4BF53C0
:1024B00023614FF47A73A3614FF0F0336365354BBA
:1024C00098472C684FF0F133C4F824344FF4487324
:1024D000C4F828340123C4F82C344FF0F233C4F884
:1024E000D83750222C4904F2DC702C4B98474FF01F
:1024F000F333C4F82C380A2241F2D473E2540B228D
:1025000041F2D573E2540C2241F2D673E2540D220B
:1025100041F2D773E25441F2D87304F803A041F2B8
:10252000D97304F8039041F2DA7304F8038074223B
:1025300041F2DB73E25441F2DC73E75441F2DD73A4
:10254000E65441F2DE7304F803B0F42241F2DF7383
:10255000E254134B984729680B785BB94B1E0B313B
:102560005A78013203F8012F8B42F9D10D4B98476D
:10257000BDE8F88F0C480D4B9847F7E7041000E0D2
:1025800084AD0720C4C50720D8AC0720E4AD0720E0
:10259000B13708002131080050640800053A0800EE
:1025A000CD310800D929080064640800ED23080033
:1025B00008B50A4B1868036B6BB1C369B3F57A7F32
:1025C00004D200EB830000F5036008BD0448054B0E
:1025D0009847002008BD002008BD00BFD8AC0720E8
:1025E00038660800ED23080008B5062913D8B8B1ED
:1025F0000E4B1B685A1892F86420824210D35A1866
:1026000092F87420013803EB4101B1F87C3002FBF1
:10261000003080B208BD0648064B9847002008BD30
:102620000548044B9847002008BD00BFD8AC0720E0
:1026300090640800ED230800D064080010B5062857
:1026400033D8464A32F810301A4492F8382042B94A
:102650004249CC185A1C01EB4001897B521A84F87C
:1026600038203E4A02EB4002928B9A4223D33B4AE7
:10267000D11891F8381001339BB222F8103002EBD8
:102680004004E4891B1B02EB4002528D934204DD9F
:10269000324A02EB4002DBB25385062809D8DFE854
:1026A00000F0101C2936084350002D482D4B984748
:1026B0000021084610BD2C4B98472A4B9847002113
:1026C000F7E7CB08294C01F00700012202FA00F0DD
:1026D000E25C22EA0002E254EBE701F10B03D810BE
:1026E000224C03F0070301229A40235C23EA0203F1
:1026F0002354DEE701F11603D8101C4C03F0070346
:1027000001229A40235C23EA02032354D1E701F11A
:102710002103D810154C03F0070301229A40235CD3
:1027200023EA02032354C4E701F13103D8100F4C0C
:1027300003F0070301229A40235C23EA0203235497
:10274000B7E701F13403D810084C03F00703012266
:102750009A40235C23EA02032354AAE708AD07202A
:10276000F4650800ED2308001D32080000AD0720C5
:1027700038B59AB1044608461546062C12D8A9B1B8
:10278000154B1B68234493F864308B4212D32146C7
:10279000124B9847124B1B6893B138BD1148124B2E
:1027A000984738BD1148104B984738BD10480E4B1C
:1027B000984738BD20460F4B98470B4B984738BD7C
:1027C000054B1B681C448C3094F86C202946184437
:1027D000094B9847E1E700BFD8AC0720E92508007E
:1027E00080AD07206C650800ED2308009C6508009B
:1027F000C86508001D320800053A08002DE9F041BF
:1028000048B1054628B10024204E2746DFF88880CD
:102810000BE0BDE8F0811E481E4B9847BDE8F081F3
:10282000012A1ED00134AC422ED03068C369234443
:102830004FEA830E00EB0E0292F8302802F1670196
:10284000C9B20E29ECD86832D2B2134481698B42E6
:10285000E8D201320EF5036E920039467044C0474B
:10286000E0E701338269934207D20EF5036E00EB75
:102870000E0340F80E705F60D4E7C0F830780EF5B4
:10288000036E40F80E70CDE7BDE8F081D8AC0720AC
:1028900094630800ED230800B137080008B50A4B1F
:1028A0001B681A6B7AB15A6901325A61DA690132CE
:1028B000DA61B2F57A7F03D301221A620022DA616B
:1028C0000120024B984708BDD8AC0720FD2708001F
:1028D00030B583B0044600230193FF2803D04FF6A0
:1028E000FF73984232D1304B1B685A6A52B92F4A53
:1028F00012682F4909680A442E4909688A421CBF98
:102900002D4A5A6201A82D4B9847019A2C4B186802
:10291000151A1A60244B1B68596A01B38D421AD9E3
:10292000B5FBF1F2D86A1044D86201FB12519A6AE1
:10293000114499621C4B1B689A6A596A8A420FD3E8
:10294000D86A0130D862521A9A6209E01D481E4BBB
:102950009847002008E09A6A2A449A62EAE79A6255
:10296000A54203D804EA050003B030BD174B9847D1
:102970000028F7D04FF6FF72944207D0FF2C0CD0FE
:102980001348114B9847134B9847EBE7A922027065
:102990002A0C428000224270F5E7A82202702A0A1F
:1029A00042802A0E4270EEE7D8AC0720041000E007
:1029B00084AD0720C4C50720406F40012D2A0800C0
:1029C00078AD0720EC630800ED230800B12508006E
:1029D0002C6408009D28080008B50E4B1A6842F0C8
:1029E00080721A601B686BB10B4B1B6813F0007F81
:1029F0000CD10022094B1A60074A136843F0010307
:102A0000136008BD0648074B984708BD0648054BAC
:102A1000984708BDFCED00E0001000E0041000E065
:102A200060660800ED23080080660800114B1B68F3
:102A3000012B19D010B4104B1A68104B1B681A44A4
:102A40000F4B1B68D31A0F490C68234403F003048F
:102A50000C600D4C216801EB9303236000B103600F
:102A6000074B1A6010BC70470028FCD0064B1B684F
:102A70000360704794AD0720041000E084AD072088
:102A800088AD07208CAD072090AD072038B50446EF
:102A90000D46FF2803D04FF6FF73984203D1AC4296
:102AA00005D3284638BD0948094B9847F9E7094B33
:102AB000984748B10123037025EA0403190A4170BD
:102AC0001B0C4380044B98472540EAE7A8660800A2
:102AD000ED230800B12508009D280800002841D0FA
:102AE00070B50446204A12681AB30F2822D81F4B2B
:102AF0001B681BBBEFF31085012383F310881B4A6F
:102B00001368013313601A4B1B681B6B5BB100F138
:102B10002103DA1017498A5C03F0070342FA03F332
:102B200013F0010F0ED0114A1368013B136085F3B7
:102B3000108870BD1048114B984770BD10480F4B5E
:102B4000984770BD4FF6FF700E4B984706460E4BE8
:102B500098470028E7D002220270468044700B4B51
:102B60009847E0E7704700BF3C0107207CAD072095
:102B7000D8AC072000AD0720C86B0800ED23080083
:102B8000086C0800D1280800B12508009D2808001D
:102B9000F8B50446FE2839D8084606293AD82B4B02
:102BA0001B680B4493F86430934237D3284B1B685F
:102BB000002B37D1274B1B783BB3EFF31085012354
:102BC00083F3108822490B6801330B601F4B1B688D
:102BD0001B6BA3B1204B93F9003013B91F4B1B782B
:102BE0006BB9D6B231461E4B984740B9E3081D4A2F
:102BF000D35C04F00702134113F0010F16D0144AFE
:102C00001368013B136085F31088F8BD1648174B15
:102C10009847F8BD1648154B9847F8BD1548134B13
:102C20009847F8BD1448114B9847F8BD4FF6FF7010
:102C3000124B98470746124B98470028DFD0478031
:102C4000047046700F4B9847D9E700BFD8AC0720F7
:102C50007CAD07209CAD07209EAD07209DAD0720D1
:102C60006D320800DCAC07203C690800ED23080049
:102C700070690800B4690800F8690800D1280800E4
:102C8000B12508009D2808002DE9F0410446FE28E2
:102C90003BD808461D4606293CD8304B1B680B44E0
:102CA00093F8643093423AD32D4B1B68002B3BD1F1
:102CB000EFF31086012383F3108829490B68013351
:102CC0000B60264B1B681B6BBBB1264B1B78A3B15B
:102CD000254B1B781BB1254B93F900306BB1D7B254
:102CE0003946234B984740B9E308224AD35C04F0A5
:102CF0000702134113F0010F1BD0194A1368013B5F
:102D0000136086F31088BDE8F0811B481B4B984781
:102D1000BDE8F0811A48194B9847BDE8F081194881
:102D2000164B9847BDE8F0811748144B9847BDE80B
:102D3000F081FF20154B984780462946FF20144B11
:102D400098470546134B98470028D6D080F8038053
:102D5000047047708570104B9847CEE7D8AC0720B9
:102D60007CAD07209CAD07209DAD07209EAD0720C0
:102D70006D320800DCAC0720BC6A0800ED230800B7
:102D8000F46A0800406B0800906B0800D128080026
:102D90008D2A0800B12508009D280800F8B5FE28F6
:102DA0002BD804460E46234B1B6853BBEFF310850C
:102DB000012383F310881F4A1368013313601E4BED
:102DC0001B681B6B93B11D4B1B787BB11C4B1B7895
:102DD0001BB11C4B93F9003043B1E3081A4AD35C92
:102DE00004F00702134113F0010F0ED0114A1368CB
:102DF000013B136085F31088F8BD1448144B9847C5
:102E0000F8BD1448124B9847F8BDFF20124B984765
:102E1000074631464FF6FF70104B98470646104B59
:102E200098470028E2D04770047046800D4B9847C1
:102E3000DCE700BF7CAD0720D8AC07209CAD0720A5
:102E40009DAD07209EAD0720DCAC0720306A08004E
:102E5000ED230800846A0800D12808008D2A0800A4
:102E6000B12508009D28080038B50446062815D865
:102E7000084615460D4B1B68234493F864308B427B
:102E800010D321460A4B9847084B1B681C4494F802
:102E90006C201844104480F88D5038BD0548064B0E
:102EA000984738BD0548044B984738BDD8AC072033
:102EB000E92508006C680800ED230800B4680800E4
:102EC00010B50446062814D808460F4B1B68234447
:102ED00093F864308B4211D321460C4B98470A4B30
:102EE0001B681C4494F86C201844104490F88D0022
:102EF00010BD0748074B9847002010BD0648054BFA
:102F00009847002010BD00BFD8AC0720E925080075
:102F100064670800ED230800AC67080038B5044674
:102F2000062815D8084615460D4B1B68234493F810
:102F300064308B4210D321460A4B9847084B1B68DC
:102F40001C4494F86C201844104480F88C5038BD10
:102F50000548064B984738BD0548044B984738BD8F
:102F6000D8AC0720E9250800EC670800ED2308002D
:102F70003068080010B50446062814D808460F4BE0
:102F80001B68234493F864308B4211D321460C4BC9
:102F900098470A4B1B681C4494F86C201844104452
:102FA00090F88C0010BD0748074B9847002010BDD3
:102FB0000648054B9847002010BD00BFD8AC07203D
:102FC000E9250800E4660800ED23080028670800EA
:102FD000F8B50F284BD8044600F12103DA10264932
:102FE0008A5C03F0070342FA03F313F0010F14BFE6
:102FF00001230023214A1370EFF31085012282F38D
:1030000010881F490A6801320A601E4A12788242FB
:1030100026D01D4A1268126B12B30BBB00221B4B49
:103020001A604FF6FF701A4B98470746154B1C70F5
:10303000184B9847064698B1124B19780320164B47
:10304000984701280CBF07230623337077807470DC
:1030500001220C4B19780320104B9847104B9847CE
:10306000074A1368013B136085F31088F8BD0D48CB
:103070000D4B9847F8BD00BF00AD07209DAD072060
:103080007CAD07209CAD0720D8AC0720A0AD072061
:10309000D1280800B1250800752F08001D2F080051
:1030A0009D280800406C0800ED23080008B50B4B74
:1030B0001B6893F8673083420CD30321084B984771
:1030C000064B1B6893F86F2018441044002380F8C7
:1030D0008C3008BD0348044B984708BDD8AC072086
:1030E000E9250800F4680800ED23080008B5014B45
:1030F000984708BD590D080008B5014B984708BD11
:103100005F0D080008B5024B9847C0B208BD00BF6C
:103110005517080008B5014B984708BD611708000E
:10312000294B1B680722DA650A2283F8642083F89A
:10313000652083F866200F2283F86720052183F835
:103140006810022183F8691083F86A1083F86C20F4
:1031500083F86D2083F86E2083F86F2083F8702049
:1031600083F8712083F87220102283F8742083F88A
:10317000752083F87620132183F87710112083F8C7
:10318000780083F8792083F87A100022A3F87C2055
:10319000A022A3F87E204FF4A072A3F880204FF461
:1031A000F072A3F8822040F2FD22A3F8842040F2BE
:1031B0005232A3F8862040F27232A3F888204FF4EE
:1031C00066721A66704700BFD8AC0720124B002207
:1031D000DA811A800A221A825A8014225A829A802C
:1031E0001E229A82DA802D22DA821A8132221A83F2
:1031F0005A8134225A839A8109229A831322DA83CC
:103200001D221A842C225A8431229A843322DA8491
:1032100035221A85704700BF08AD0720062811D84F
:10322000DFE800F00A060812040C0E000748704799
:103230000748704707487047074870470748704776
:10324000074870470748704707487047BC6C08003C
:10325000F46C0800386D0800746D0800B06D08004B
:10326000EC6D0800306E0800846C080008B5062874
:103270000ED82C4B1B68034493F864308B420CD35C
:1032800006284AD8DFE800F02C18220E49353F0006
:103290002548264B9847012008BD2548234B9847D1
:1032A000012008BD2131CB1001F007010120884029
:1032B000204AD15C084008BD0B31CB1001F007015A
:1032C000012088401B4AD15C084008BD1631CB1054
:1032D00001F0070101208840164AD15C084008BD72
:1032E000CB0801F0070101208840124AD15C084058
:1032F00008BD3131CB1001F00701012088400D4A93
:10330000D15C084008BD3431CB1001F00701012029
:103310008840084AD15C084008BD0748034B9847DD
:10332000012008BDD8AC0720606E0800ED2308001E
:10333000A86E080000AD0720E86E080008B5014B34
:10334000984708BD4124080038B51D4B1B6833B1B0
:103350001C4B1B6843B11A4B1B68186B38BD1A48CD
:103360001A4B9847002038BDEFF31084012282F3F6
:10337000108817490B6813440B60114B1B681A63C4
:10338000144B9847144B9847054648B12846134BB1
:1033900098470F4A1368013B136084F31088DAE7FB
:1033A00003200F4B984705460E4A014603200E4B5B
:1033B00098470022294603200C4B9847E6E700BFB8
:1033C000D8AC072080AD07201C6F0800ED23080053
:1033D0007CAD07201531080005310800D12F080009
:1033E0003D260800686F080071270800692E080054
:1033F000F0B583B004460D4600230193204B98425C
:103400000DD0204B984212D01F4B984219D01F4B21
:103410009C4220D01E4B9C4227D003B0F0BD1F46DB
:103420001C4E29463846B0470028FAD1EFE71F4620
:10343000194E01A93846B0470028FAD1019B2B70DC
:10344000E8E71E46144C01A93046A0470028FAD1EF
:10345000019B2B70E1E71E460F4C01A93046A047A7
:103460000028FAD1019B2B70D7E71E460A4C01A910
:103470003046A0470028FAD1019B2B70CDE700BF52
:1034800000080E400080094000C0094000000A40CA
:1034900000400A400B1D0800B101080070B50C4641
:1034A0001E4B98420DD01E4B984213D01D4B984294
:1034B00019D01D4B98421FD01C4B984225D000209C
:1034C00070BD1E461A4D21463046A8470028FAD145
:1034D000012070BD1E46174D21463046A8470028E2
:1034E000FAD1012070BD1E46124D21463046A84734
:1034F0000028FAD1012070BD1E460E4D21463046EF
:10350000A8470028FAD1012070BD1E46094D21466A
:103510003046A8470028FAD1012070BD00080E40AF
:103520000080094000C0094000000A4000400A40F5
:10353000FB1C08009D010800F8B50746044E054D28
:10354000054C39463046A8474FF47A70A047F8E753
:10355000AC6F08009D3608007D13080000B589B0E7
:10356000234B9847234B98470820234DA847234CCB
:10357000234B1C60234A244B1A60244A244B1A60B4
:10358000244B05934FF4E13306934FF40063079304
:103590000820A84705A920461F4B98471F4D2B68B8
:1035A000002198681E4CA0472B6800215868A0474E
:1035B0001C4B98471C4B98471C4B1B681C4E002407
:1035C00003940294019401220092F022194930469A
:1035D000194DA847194B1B680394029401940222C9
:1035E0000092F02216493046A847164B9847FEE74E
:1035F0001D1D0800811D08009521080000080E40CF
:10360000E0AD07209D340800DCAD0720F133080051
:10361000D8AD072000BD0105C51C080050010720DA
:103620004D3808003D3308004933080048010720A1
:1036300039350800746F08000D0E08004C01072092
:103640007C6F080075100800FEE7000070B50F4E93
:103650000F4D761BB61018BF002405D0013455F865
:10366000043B9847A642F9D10A4E0B4D03F054FD96
:10367000761BB61018BF002406D0013455F8043B61
:103680009847A642F9D170BD70BD00BF24710800F3
:10369000247108002C710800247108000FB410B5C3
:1036A000074B82B004AC54F8042B18682346816899
:1036B000019400F019FA02B0BDE8104004B0704760
:1036C00050010720844641EA000313F0030349D167
:1036D000403A23D30B6803604B6843608B68836078
:1036E000CB68C3600B6903614B6943618B6983617C
:1036F000CB69C3610B6A03624B6A43628B6A836264
:10370000CB6AC3620B6B03634B6B43638B6B83634B
:10371000CB6BC36340304031403ADBD230320BD305
:103720000B6803604B6843608B688360CB68C36041
:1037300010301031103AF3D20C3205D351F8043B5B
:1037400040F8043B043AF9D2043208D0D2071CBF37
:1037500011F8013B00F8013B01D30B880380604660
:10376000704700BF082A13D38B07B1D010F00303B2
:10377000AED0C3F10403D21ADB071CBF11F8013B22
:1037800000F8013BA4D331F8023B20F8023B9FE74D
:10379000043AD9D3013A11F8013B00F8013BF9D2C0
:1037A0000B7803704B7843708B788370604670475A
:1037B00070B4860746D0541E002A41D0CAB20346D0
:1037C00002E014F1FF343BD303F8012B9D07F8D13D
:1037D000032C2ED9CDB245EA05250F2C45EA054527
:1037E00019D9264603F11002103E0F2E42F8105C44
:1037F00042F80C5C42F8085C42F8045C02F11002EA
:10380000F2D8A4F1100222F00F0204F00F041032DB
:10381000032C13440DD91E462246043A032A46F8C7
:10382000045BFAD8221F22F003020432134404F08E
:1038300003042CB1C9B21C4403F8011B9C42FBD108
:1038400070BC704714460346C2E700BF00290CBF96
:10385000022200224FF4806300F000B82DE9F0430B
:10386000504D83B02D6804460F4690461E4615B154
:10387000AB6B002B77D0B8F1020F04D0B8F1010F79
:103880007DD8002E7BDB2146284601F06DF8216BA8
:1038900041B104F14003994202D0284601F0CAF92F
:1038A000002323630022B4F90C30A26162601A067F
:1038B00052D423F44A6323F00303B8F1020FA38127
:1038C00037D001AB6A462146284601F049FCA3895E
:1038D0001843A08116B317B3AB6B002B4BD0009BE2
:1038E00027609E42B4F90C3027611CBF43F400638B
:1038F000A381B8F1010F04BF43F00103A3819BB280
:1039000013F00800666123D013F001002FD00020CF
:103910007642A661A06003B0BDE8F083009E304609
:1039200001F090FC074668B3A38943F08003A381AC
:10393000D2E700200025012104F1430243F00203F5
:10394000A381A56061612260226103B0BDE8F083BC
:10395000A06003B0BDE8F0832169284601F06AF950
:10396000B4F90C30A5E7284601F092F883E7A66089
:1039700003B0BDE8F083284601F08AF8AFE74FF0C6
:10398000FF30E2E7DDF80090B14506D0484601F08F
:1039900059FC074608B14E46C6E7B4F90C304FF063
:1039A000FF30C7E75001072020F0030110F00300AB
:1039B000C0F1000051F8043B00F1040C4FEACC0CBC
:1039C0006FF000021CBF22FA0CF213434FF0010CFF
:1039D0004CEA0C2C4CEA0C4CA3EB0C0222EA03023E
:1039E00012EACC1204BF51F8043B0430F4D0C2F107
:1039F000000102EA0102B2FA82F2C2F11F0200EBF8
:103A0000D200704740EA010313F0030F70B403467D
:103A100024D0A2B10C78013A1C70013101333CB1C1
:103A20006AB111F8014B013A03F8014B002CF7D1B0
:103A30002AB100211A4403F8011B9A42FBD170BC41
:103A400070470E4651F8045BA5F1013424EA0504E1
:103A500014F0803F05D1043A43F8045B032AF0D800
:103A6000D7E73146D6E700BF2DE9F84F4B6E9346B6
:103A70009C042FD59368126853B30E46074602F193
:103A8000080919E920045FEA9A0817D00024043DC8
:103A900001E0A04510D0324655F8041F384601F029
:103AA00067F8431C04F10104F3D10023CBF808307C
:103AB000CBF80430BDE8F88FDBF808302AF0030AB1
:103AC000A3EB0A03CBF8083009F10809002BD8D181
:103AD0000020EAE701F094F90023CBF80830CBF896
:103AE0000430BDE8F88F00BF2DE9F04FADB01D46A2
:103AF000019191460893069018B1836B002B00F05A
:103B0000E080019CB4F90C0081B28B0407D4636E91
:103B100040F4005123F40053A181636689B20F077A
:103B200040F1B180019B1B69002B00F0AC8001F0DB
:103B30001A010A2900F0B58000230DF1700AD3465E
:103B40000B93049311931093CDF83CA099F8003097
:103B50004C46FBB1252B02D11CE0252B03D014F8D9
:103B6000013F002BF9D1A4EB09059DB1109B119ADF
:103B700001332A44072BCBF80090CBF80450119264
:103B800010937ADD002A40F09384D346049B109270
:103B90002B4404932378002B00F0B68300204FF0D1
:103BA000000304F101098DF83730627806460546B6
:103BB00003464FF0FF3409F10109A2F12001582911
:103BC00000F20A83DFE811F03F0208030803E7026E
:103BD0000803080308030803080308038000EC0235
:103BE000080388007F020803D601DB01DB01DB014B
:103BF000DB01DB01DB01DB01DB01DB010803080387
:103C0000080308030803080308030803080308035C
:103C1000470208030803080308030803080308030E
:103C20000803080308034E020803080308030803F7
:103C300008035202080308035A0208030803080392
:103C40000803080308030803080308030803E9013D
:103C5000FE010803080308030303FE010803080329
:103C600099020803F1028D00AD02BF020803C402ED
:103C70000803C40108030803A6020BF1080B049B08
:103C80002B44049386E7019C0698214600F05CFDD6
:103C9000002840F04583A18901F01A010A297FF428
:103CA0004BAF0199B1F90E30002BFFF645AF2B4613
:103CB0004A46069800F012FD049004982DB0BDE825
:103CC000F08F00F0E5FE1CE708990A460D68043203
:103CD000002D089202DA6D4243F0040399F80020A7
:103CE00069E7079513F0200240F03D8413F01001BE
:103CF00040F0E98313F0400200F0E58308980A469B
:103D0000014600270431068808914FF00001002584
:103D10008DF83710611C00F0778123F0800103914A
:103D200056EA070140F07581002C40F05483002AC8
:103D300040F0938313F00103059300F04284302395
:103D40000DF1B00808F8413D059BA342B8BF2346DA
:103D500002930DB101330293039B13F00203099305
:103D600002D0029B02330293039B13F084030A9355
:103D700040F06182079B029A9D1A002D40F35B82FE
:103D8000102D40F36884109BDE461027A346119A3D
:103D9000B84E1946069C07E001F1020C01460EF1EF
:103DA000080E103D102D11DD481C1032072811920D
:103DB0008EE8C0001090EFDD002A40F02782103D11
:103DC000102D11464FF0010CD646EDDC5C466146E5
:103DD000F3462A4407291192CBF80060CBF804502F
:103DE000109100F3E4829DF837500BF1080B481C4A
:103DF000002D40F02882099B002B00F04282022116
:103E00000EAB0A44072811921090CBF80410CBF89F
:103E1000003040F33282002A40F078830A9B012070
:103E2000802B1146D34640F03082079B029D5E1BDB
:103E3000002E40F32A82102E40F32884DC461027FF
:103E4000A3468D4D069C07E001F1020E01460CF1E0
:103E5000080C103E102E11DD481C1032072811925C
:103E60008CE8A0001090EFDD002A40F09382103E15
:103E7000102E4FF0010E1146D446EDDC5C46E346B1
:103E80003244BEF1070F11928BE86000CDF840E09C
:103E900000F35683059B0BF1080BE41A002C0EF17E
:103EA0000100714600F3F681059907280A44119232
:103EB000CBF80080CBF80410109040F35282002A17
:103EC00040F0EB82039B1092580738D5079B02996C
:103ED0005C1A002C40F3B782D346102C40F3CA83FF
:103EE00010251099634E069FDDF8048006E0881CBB
:103EF00019460BF1080B103C102C13DD4B1C103233
:103F0000072B1192CBF80060CBF804501093EEDD34
:103F1000002A40F00982103C102C4FF0010011469D
:103F2000D346EBDC224407281192CBF80060CBF893
:103F30000440109040F32082002A40F05483049BF8
:103F4000079A02998A42ACBF9B185B1804931CE243
:103F500007959E0600F113830899DD060A4600F1D5
:103F6000C582580640F1C2820E8804310027012222
:103F70000891CAE643F0800399F800201BE600256B
:103F8000A2F1300119F8012B05EB850501EB450580
:103F9000A2F130010929F5D90FE60122089811464E
:103FA000029202684FF000048DF848200246043265
:103FB00007958DF83740059108920DF14808039355
:103FC0000024C9E60795002840F07E839E0600F194
:103FD000EC820899DD060A4600F18182580640F11C
:103FE0007E82B1F900600432F717304639460892F4
:103FF000002871F10002C0F2E782611C9DF8375081
:104000004FF001027FF489AE56EA070100F0E48127
:104010000393012A00F02482022A40F0F181D04665
:104020000B98330943EA0773390906F00F020F466C
:104030001E46835C08F8013D56EA0703F1D1AAEB5E
:104040000803059380E699F80020002E7FF4B3ADB5
:1040500001202026AFE50795002840F0328343F089
:104060001003B3E7079543F010033BE6079543F0D1
:1040700010036EE7E46F0800F46F0800079500284E
:1040800040F01683AE490B919F0600F18482089898
:10409000DE06014600F11E825D0640F11B8200270C
:1040A000043106880891D80740F1D58156EA070106
:1040B00000F0D18130218DF8392043F002038DF8D2
:1040C0003810022221E699F8002009F101072A2A76
:1040D00000F0E082A2F130010929B9464FF0000456
:1040E0003FF66BAD19F8012B04EB840401EB44049B
:1040F000A2F130010929F5D95FE599F800206C2A71
:1041000003BF99F8012043F0200309F1010943F0AE
:10411000100350E50795002840F0D08289490B91A3
:10412000B2E7782230210795089D8DF839202A1DA5
:104130000892844A2E680B9243F002038DF83810DF
:1041400000270222E1E543F0200399F8002032E540
:104150004FF0000208990795D1F800808DF83720BC
:104160000D1DB8F1000F00F07C82671C00F05B822F
:10417000224600214046029301F024FB029B0028C6
:1041800000F07C82A0EB08020895059203939DF84D
:1041900037500024D8E543F0010399F800200AE5E0
:1041A00099F8002001202B2605E5002840F08382A5
:1041B000990600F12B82DA0621D45B061FD5089AF6
:1041C000136804320892BDF810201A80BEE443F050
:1041D000400399F80020EEE40795002840F065823E
:1041E000002A00F0918001218DF848204FF0000254
:1041F00002918DF8372005910DF14808DFE6089A05
:10420000136804320892049A1A609FE40FAA019975
:104210002046FFF729FC00287DD11099D646119A37
:1042200001F1010CBDE50FAA01990698FFF71CFCEE
:10423000002870D1D34610999DF83750119A481C28
:10424000002D3FF4D8AD01210DF137050A440728B0
:1042500011921090CBF80410CBF8005040F3B680C8
:10426000002A40F06081099B002B3FF4D7AD022269
:104270000846D3460EAB1D921C9301460BF1080B6A
:1042800001300A9B802B3FF4D0AD059BE41A002C33
:104290007FF70AAE102C40F3B781DE4610262A4D78
:1042A000069FDDF804B006E0881C19460EF1080EE2
:1042B000103C102C0FDD4B1C1032072B11928EE896
:1042C00060001093F0DDA2B9103C102C4FF00100FB
:1042D0001146D646EFDCF346224407281192CBF86C
:1042E0000050CBF80440109030DC0BF1080B01308B
:1042F000DAE50FAA59463846FFF7B6FB58B91099C8
:10430000D646119A481CD3E7119B23B106980FAAF1
:104310000199FFF7A9FB019B9B895B067FF5CDAC5B
:104320004FF0FF330493C8E40FAA41463846FFF725
:104330009BFB0028EFD11099D346119A481CDAE56F
:10434000B46F0800C86F0800F46F0800002A40F03E
:10435000FD800123D346059ACDF870801D921192FD
:1043600010930BF1080B039B590705D5079B029986
:104370005C1A002C3FF7B1AD049B0799029881426B
:10438000ACBF5B181B1804937ABB0023D346109371
:10439000FFF7DCBB0FAA01992046FFF765FB002859
:1043A000B9D11099D446119A01F1010E51E5002AB4
:1043B0007FF439AF9DF83710002900F00E810122FB
:1043C000D34610460DF137011D921C9101460BF1A9
:1043D000080B01300FE5039B012A00F08E80022AB2
:1043E0000BD103930026002719E60FAA019906981E
:1043F000FFF73AFB0028C8D08DE70026002703937B
:10440000514600E04146F20842EA4772F80806F0D9
:10441000070307461646303356EA070201F8013C07
:1044200001F1FF38EED1039AD6077FF508AE302BA5
:104430003FF405AE3023023908F8013CAAEB010332
:104440000593884680E4049B079A8A42ACBF9B1878
:104450005B18049399E7022257E40594D04673E46D
:10446000002F08BF0A2E47D3D046304639460A22CD
:10447000002301F0FFFD303208F8012D30463946A7
:1044800000230A2201F0F6FD06460F4656EA07030E
:10449000EBD1AAEB0803059356E40FAA01990698FD
:1044A000FFF7E2FA00287FF436AFD346119A5AE7B5
:1044B0000FAA01990698FFF7D7FA00287FF42BAFCF
:1044C000D346FFF7DCBB0898002701460431066895
:1044D00008911AE40E68043108910027E3E5166894
:1044E0000432F71708923046394681E504311668E0
:1044F00000270122089108E4039B039301230DF197
:10450000B008303608F8416D05931DE40FAA0199F3
:104510000698FFF7A9FA00287FF4FDAE1099D3465C
:10452000119A481CADE60FAA01990698FFF79CFA6C
:1045300000287FF4F0AE1099D346119A481C5AE433
:10454000002A7BD101201146D3469EE60FAA01998D
:104550000698FFF789FA00287FF4DDAE1098D3465D
:10456000119A0130A0E4089D073525F0070202F1F9
:104570000801D2E9006708910022FFF7C6BB089D39
:10458000073525F0070202F10801D2E9006708911A
:104590000122FFF7BABB089D073525F0070101F19D
:1045A00008000890D1E900677DE5089D073525F0F2
:1045B000070505F10802D5E90001089206460F46F5
:1045C00016E5D046FFF7C0BB2D25764267EB4707BF
:1045D0008DF837500122FFF79DBB099B6BB911463F
:1045E0000120D34651E60FAA01990698FFF73CFA3D
:1045F00000287FF490AE119ABEE602220EAB1D9207
:104600001C930120D34638E6314D65E6089A1346DF
:1046100004330893049B1168DD171A462B46C1E941
:104620000023FFF793BA404608950393FFF7BCF9C0
:10463000002405909DF83750FFF786BB0FAA01991B
:104640000698FFF711FA00287FF465AE1099D3465B
:10465000119A481C19E61099119A01311D4EFFF765
:10466000B8BB062C28BF0624089505940294DFF8F1
:104670006880A4E41098174E013053E4059408951F
:10468000039304469DF83750FFF75EBB8646104DF6
:10469000FFF7F6BB089999F801200C68043144EA49
:1046A000E474B9460891FFF786BA8DF8376097E54C
:1046B0008DF83760E6E48DF8376079E58DF837607E
:1046C0002CE58DF83760CAE48DF837607EE400BFD2
:1046D000F46F0800E46F0800DC6F080070B50C464A
:1046E00000264FF480658989ADF58D6D21F00201BA
:1046F000ADF80C100696616EE6891991ADF80E6062
:10470000E169666A0791099669461AAE00960496B1
:10471000029505950646FFF7E7F9051E07DB3046CB
:10472000694600F021F9002818BF4FF0FF35BDF8A9
:104730000C305B0603D5A38943F04003A3812846D0
:104740000DF58D6D70BD00BF38B5304B054618684E
:104750000C4610B1836B002B38D0B4F90C2093B207
:1047600018070CD52069A8B113F001021ED0002251
:104770006369A2605B42A361F0B1002038BDD90635
:104780003BD5580725D4206942F00803A3819BB28A
:104790000028E9D103F42072B2F5007FE4D0284666
:1047A000214600F00BFDA3892069DDE7990758BF7A
:1047B0006269A2600028E0D1B4F90C301A06DDD598
:1047C00043F04003A3814FF0FF3038BD00F060F9A3
:1047D000C3E7216B51B104F14003994204D028464C
:1047E00000F028FAB4F90C20002323630023206989
:1047F00022F0240284E80900C6E7092342F04002BF
:104800002B604FF0FF30A28138BD00BF5001072060
:10481000024B13B1024800F005B8704700000000D9
:10482000A54A0800002301461A46184601F028BB95
:10483000B1F90C302DE9F0419AB20D4611078046CE
:104840003AD46A6843F40063002AAB8170DDAC6A35
:10485000002C4AD000229BB2D8F80060C8F8002093
:1048600013F4805268D02A6D5F0705D569682B6BF9
:10487000521A0BB1EB6BD21A0023E9694046A047EC
:10488000441C3DD00021B5F90C302A6923F40063A3
:10489000AB81DB0469602A6048D4296BC8F80060EA
:1048A00019B305F14003994202D0404600F0C2F925
:1048B00000202863BDE8F0812E69B6B1910718BFCA
:1048C00000232C6808BF6B692E60A41BAB600AE054
:1048D000234632466F6AE9694046B8470028A4EB90
:1048E0000004064404DD002CF2DC0020BDE8F08169
:1048F000AB894FF0FF3043F04003AB81BDE8F0815E
:10490000D8F800401D2CF3D8164BE340DB4313F0DE
:104910000103EDD1B5F90C20296922F40062AA81C6
:10492000D2046B602960B8D5002CB6D12865B4E7F5
:10493000EA6B002A8BDCD8E70123E9694046A047EF
:10494000431C024602D0AB89AC6A8DE7D8F8003030
:10495000002BF8D01D2B01D0162BC9D1C8F8006050
:10496000C3E700BF0100402010B5044682B008B183
:10497000836B53B1B1F90C0008B902B010BD2046E9
:1049800002B0BDE81040FFF753BF019100F080F87E
:104990000199EFE7014900F0ADBB00BF515F08008E
:1049A0002DE9F04F07460024042303217D68334896
:1049B00007F53B72F863C7F8E412C7F8E822C7F8B6
:1049C000E04283B02C606C60AC606C66EC812C6162
:1049D0006C61AC61AB81214605F15C000822FEF7F9
:1049E000E7FE01230922BE68DFF894B0DFF894A047
:1049F000DFF89490DFF89480C5F820B0C5F824A0C3
:104A0000C5F82890C5F82C80ED612146F381B2816C
:104A100006F15C0034607460B46074663461746183
:104A2000B46108220193FEF7C3FE12200222FD6842
:104A30002146F661C6F820B0C6F824A0C6F8289032
:104A4000C6F82C80A881EA812C606C60AC606C6632
:104A50002C616C61AC6105F15C000822FEF7A8FED8
:104A6000019BED61C5F820B0C5F824A0C5F82890D9
:104A7000C5F82C80BB6303B0BDE8F08F95490800F2
:104A8000B15C0800D55C0800115D0800315D0800CC
:104A9000836B03B17047FFF783BF00BF704700BF50
:104AA000704700BF38B50A4C0A4D641BA4100AD0E9
:104AB00004F18043013B05EB8305013C55F80439C3
:104AC0009847002CF9D1BDE8384002F02FBB00BF59
:104AD0003C710800387108002DE9F04383B00746A7
:104AE0008846144600F02EFB012833D0424604F1DC
:104AF0005C0301A9384601F077F9421C064622D032
:104B000090B39DF8041000250DF1040908E0236816
:104B10005A1C226019700135B54225D215F80910CA
:104B2000A368013B002BA360F1DAA269934201DB89
:104B30000A29ECD12246384601F0FEF8431CEAD19E
:104B400003B0BDE8F083A38943F04003A38103B021
:104B5000BDE8F08308F1FF33FE2BC7D85FFA88F178
:104B600006468DF80410CEE7404603B0BDE8F0835A
:104B7000B2F90C3013F4005F0AD110B4546E43F450
:104B8000005344F400545466938110BCFFF7A4BF53
:104B9000FFF7A2BFF8B50C46234F064600F0BCFE57
:104BA000BB68C4F57E615D680F3125F003052944BB
:104BB00021F47F6121F00F01A1F58054B4F5805FED
:104BC00007DB0021304601F061F8BB682B449842B6
:104BD00004D0304600F0A2FE0020F8BD614230460D
:104BE00001F054F801300DD0104BBA6819682D1B34
:104BF00045F001053046091B5560196000F08EFE36
:104C00000120F8BD0021304601F040F8BA68831A4F
:104C10000F2BDEDD064C0549246843F00103001B21
:104C200053600860D5E700BFEC060720A4AD07205D
:104C3000F40A0720002944D02DE9F0410D468046B2
:104C400000F06AFE55F8047C6949A5F1080427F0D4
:104C50000103E2188E685068B24220F003005ED073
:104C6000FE0750600BD455F8087C01F1080EE41BD8
:104C7000A5683B4475456DD0E768EF60BD601518C9
:104C80006D68ED073ED543F001026260E350B3F575
:104C9000007F17D20122DB0898104D68134451F8A9
:104CA0003370824001EBC3002A430838E060A760FC
:104CB0004A6041F83340FC604046BDE8F04100F0F6
:104CC0002DBE70475A0A042A52D89A0902F13907B0
:104CD000FF0002F13805C819CA59083890424FD070
:104CE000516821F003018B4232D292689042F7D191
:104CF000C368A060E3609C60C4604046BDE8F041CA
:104D000000F00CBE95683B4F0344BD4240D0D068D4
:104D100043F00102E86085606260E350B7E7FF0797
:104D2000034407D455F8085C641BE268A0682B4470
:104D3000C2609060304A43F00100126860609342A4
:104D40008C60B9D32D4B40461968FFF723FFB3E7BA
:104D50001046CDE711184968C90744D49168034447
:104D6000D26843F00100CA6091606060E350A3E73D
:104D7000142A16D802F15C07FF0002F15B05AAE7CE
:104D80000123AA104D6893402B434B600346B0E7C4
:104D900043F001024C610C61E560A5606260E35084
:104DA0008AE7542A06D81A0B02F16F07FF0002F1B6
:104DB0006E0590E7B2F5AA7F06D8DA0B02F1780704
:104DC000FF0002F1770586E740F25450824206D890
:104DD0009A0C02F17D07FF0002F17C057BE74FF49E
:104DE0007E777E2577E743F001016160136063E71A
:104DF000EC060720F4060720F80A0720D4AD0720A8
:104E00009368002B71D02DE9F04F8B8983B00C464D
:104E100019070090164625D522691AB313F002002F
:104E200035682BD04FF00009B0464F46DFF8C0A2DE
:104E3000002F55D057453B464A4628BF5346E169A7
:104E40000098666AB047002856DDD8F808308144DB
:104E50001B1A3F1AC8F80830002BE9D1002003B014
:104E6000BDE8F08F21460098FFF76EFC002840F067
:104E70003581A389356813F00200D3D113F00109FD
:104E800044D14F46019637B39A05D4F8088040F1D3
:104E900085804745C346C0F0AD8013F4906F40F065
:104EA000AE80BA4620685A46494600F0D1FCA26856
:104EB0002368A2EB08025B44A2602360019AD144FC
:104EC0009368A7EB0A07A3EB0A039360002BC5D0F6
:104ED000A389002FD8D1D5F800906F680835D2E7A4
:104EE000D5F800906F680835A2E70020704721468A
:104EF0000098FFF739FD78B3B4F90C304FF0FF306C
:104F000043F04003A38103B0BDE8F08F81463346F0
:104F10004E46A8469A464D4656B3002832D0B14573
:104F2000CB4628BFB346206823695F469842626932
:104F300004D9A36813449B4500F3A88093454DDB37
:104F40001346676A2A46E1690098B847071ED3DD11
:104F5000B9EB0709CBD00120DAF808303D44DB1B60
:104F6000F61BCAF80830002B3FF478AF002ED4D1DE
:104F700008F1080353F8046C984653F8085C0833AA
:104F8000002EF7D032460A21284600F01BFC0028EC
:104F900000F0A1800130A0EB0509C0E7206823697B
:104FA000984202D863699F425DD2B84528BFB8468F
:104FB0004946424600F04CFCA3682268A3EB080374
:104FC0004244A36022600BB1C24677E721460098B5
:104FD000FFF7CAFC00288FD1C2466FE75A46294620
:104FE00000F036FCA2682368A2EB0B025B44A260CF
:104FF0002360ADE7B846BA46BB46206853E762690E
:105000002068216902EB4208A0EB010A08EBD8787E
:105010000AF101004FEA680838444045424684BF1F
:10502000804642465B0544D51146009800F012F9CF
:105030008346002855D052462169FEF743FBA389D9
:1050400023F4906343F08003A3810BEB0A00A8EBE9
:105050000A03C4F810B0C4F814802060A360B846F6
:10506000BA46BB461FE76FF00042BA4228BF3A4635
:1050700092FBF3F2E16903FB02F300984A46666A89
:10508000B047B0F1000A3FF719AF35E71A46294695
:10509000019300F0DDFB2268019B21461A44226047
:1050A0000098FFF761FC019B00287FF425AF1F46A5
:1050B0004EE7009800F034FC83460028C5D1009DDF
:1050C00021692846FFF7B6FD0C22B4F90C302A609E
:1050D00023F0800312E706F1010920E74FF0FF30CB
:1050E000BDE60C220099B4F90C300A6006E700BF57
:1050F00000FCFF7F2DE9F84310F538761ED0884676
:1051000007464FF000097568B468013D10D4A389C3
:10511000013D012B08D9B4F90E30013304D02146EA
:105120003846C04749EA00096B1C04F16804EED117
:105130003668002EE7D14846BDE8F883B1464846B8
:10514000BDE8F883044B054A1B685B6B002B08BF66
:10515000134693F828017047500107208005072067
:1051600070B50C46B1F90E1090B0002915461E46D8
:1051700014DB01AA00F02CFF00280FDB029A4FF489
:10518000806302F47042A2F50052B2FA82F24FF448
:105190000060520932602B6010B070BD0023A289FC
:1051A000336012F0800004D0402218462A6010B00C
:1051B00070BD4FF480632B6010B070BD8A890B46C0
:1051C000920706D5012103F1430259611A601A6161
:1051D0007047F0B583B001AB6A460C460546FFF751
:1051E000BFFF00990646284600F034F8B4F90C30A9
:1051F000D0B19DE80600124F43F08003EF63A38116
:105200002060206161611AB93343A38103B0F0BD0E
:105210002846B4F90E1000F0EFFEB4F90C30002867
:10522000F2D043F00103EFE79A05EFD4012104F136
:10523000430243F00203A381616122602261E5E73A
:1052400095490800024B0146186800F003B800BFFA
:10525000500107202DE9F04F01F10B06162E83B007
:10526000054640F29E8036F0070600F1BD80B1424F
:1052700000F2BA8000F050FBB6F5FC7FC0F08582EA
:10528000730A00F0B880042B00F26C81B30903F1BB
:10529000390003F1380EC100B84F39444C68083961
:1052A000A14206D10CE0002A80F2AB80E468A14262
:1052B00006D0636823F003039A1B0F2AF3DD7046C0
:1052C0003C69DFF8CCE2744500F09E81636823F00E
:1052D00003039A1B0F2A00F38381002AC7F814E006
:1052E000C7F810E080F29180B3F5007F80F0548120
:1052F0000122DB0879684FEAA30C134457F8338086
:1053000002FA0CF207EBC30C0A43ACF10801E160AE
:10531000C4F808807A6047F83340C8F80C4001248C
:1053200083109C4094427DD8144206D120F00300A3
:105330006400144200F10400FAD007EBC009CC4627
:105340008046DCF80C309C4507D15FE1002A80F2F2
:105350006D81DB689C4500F05981596821F003019B
:105360008A1B0F2AF2DDDC68D3F808C046F001087A
:1053700028461E4442F00105C3F80480CCF80C40D6
:10538000C4F808C07E613E61C6F80CE0C6F808E0CB
:1053900075605A50009300F0C1FA009B03F10804B5
:1053A0001EE0102920D800F0B7FA1026182302209A
:1053B000724F3B445C68A3F10802944200F02F81D5
:1053C0006368E16823F0030323445A68A66842F047
:1053D0000102F16028468E605A6000F09FFA08349E
:1053E000204603B0BDE8F08F00240C2320462B603C
:1053F00003B0BDE8F08F40204FF400714FF03F0E36
:105400004AE723445A68E168E0E723445A6828469B
:1054100042F001025A60083400F080FA204603B0DE
:10542000BDE8F08FBC68636823F00308B04504D37F
:10543000A8EB06030F2B00F38580DFF85891504B43
:10544000D9F800201B680132334404EB080A00F04D
:10545000548103F580530F3323F47F6B2BF00F0B34
:105460005946284600F012FC411C024600F0FB8021
:10547000824500F2F680434B19685944196000F0E8
:105480004C81D9F8000001301BBFA2EB0A0A51443D
:10549000C9F80020196012F0070100F01481C1F171
:1054A0000800C1F580510244083102EB0B09C9F331
:1054B0000B09A1EB0909494628460193009200F027
:1054C000E5FB431C9DE80C0000F04281801A484433
:1054D00040F001001968BC424944BA60196050604C
:1054E00017D0B8F10F0F40F2FA804FF0050C626848
:1054F000A8F10C0020F0070002F0010204EB000EFE
:1055000002430F286260CEF804C0CEF808C000F253
:1055100016811D4BBC681A68914288BF19601B4BED
:105520001A689142626888BF196022F003029642AD
:10553000A2EB060301D80F2B04DC284600F0EEF99D
:1055400000244DE746F0010243F001032644626067
:105550002846BE600834736000F0E0F9204603B0CE
:10556000BDE8F08F142B70D9542B00F2A280330BBE
:1055700003F16F0003F16E0EC1008DE6EC0607200B
:10558000D4AD0720A4AD0720CCAD0720D0AD0720B7
:10559000F4060720F40A07205A0A042A5BD9142AC1
:1055A00000F2AE8002F15C01C9005B3207EB010C36
:1055B0007958ACF1080C8C4500F088804A6822F0DC
:1055C0000302934273D289688C45F7D1DCF80C3022
:1055D0007A68E360C4F808C09C60CCF80C409EE692
:1055E00046F0010C42F001012644C4F804C02846EC
:1055F0007E613E61C6F80CE0C6F808E07160E250DA
:1056000000F08CF90834EBE67A6888E608F10108C6
:1056100018F0030F0CF1080C7FF493AE2DE0DC685A
:10562000A34208BF02303FF44BAEC9E61C46194402
:105630004A68DB6854F8086F42F001024A60284665
:10564000F3609E6000F06AF9CAE603F15C0003F1C2
:105650005B0EC10020E69A0902F13901C900383217
:10566000A4E7BC4254D0BC68626822F003025EE743
:1056700059F80839994540F0868010F0030F00F181
:10568000FF30F5D17B6823EA04037B6064009C4211
:105690003FF6C8AE002C3FF4C5AE1C4240467FF436
:1056A0004CAE64001C4200F10400FAD045E68C4682
:1056B0008CE7B3F5AA7F15D8F30B03F1780003F15B
:1056C000770EC100E8E54FF48051EEE601217B68DA
:1056D000921001FA02F21A437A60634679E70123D5
:1056E00053602AE740F25452934222D8B30C03F19C
:1056F0007D0003F17C0EC100CEE503F1100BAFE697
:10570000542A29D81A0B02F16F01C9006E324DE7F5
:10571000204B196859441960B3E6CAF30B000028FE
:105720007FF4AFAE08EB0B03BA6843F0010353609C
:10573000EFE67F204FF47E714FF07E0EACE504F172
:10574000080128460093FFF775FA009B1968E0E608
:1057500001204FF00009BDE6B2F5AA7F05D8DA0BAB
:1057600002F17801C900773220E740F254518A42B1
:1057700005D89A0C02F17D01C9007C3216E74FF47E
:105780007E717E2212E77B6880E7F00806F108034D
:105790000EE600BFA4AD072082B049B15AB16BB18B
:1057A00013780B601278101C18BF012002B07047EC
:1057B00001A9002AF3D1104602B070476FF0010032
:1057C000F4E700BF830770B4CDB23DD0541E0AB3D6
:1057D0000378AB421FD0431C05E014F1FF3419D30A
:1057E0000278AA4217D013F0030F184603F1010301
:1057F000F3D1032C11D84CB30378AB420BD0044443
:10580000431C02E00278AA4205D09C42184603F1EC
:105810000103F7D1002070BC7047090289B2294307
:1058200041EA0141036806464B40A3F1013222EAF6
:10583000030313F0803F00F1040003D1043C032C68
:10584000F0D8D8E73046D7E71446D2E72046E2E75B
:105850008842F0B50DD98B1898420AD28418002AD4
:1058600051D0224613F8014D994202F8014DF9D169
:10587000F0BD0F2A48D941EA00039B0746D11546DF
:1058800000F1100401F1100353F8106C103D44F8BE
:10589000106C53F80C6C0F2D44F80C6C53F8086C1A
:1058A00004F1100444F8186C53F8046C03F110036D
:1058B00044F8146CE8D8A2F1100323F00F0302F0AF
:1058C0000F0E1033BEF1030F1944034421D90E46C5
:1058D00074461D1F56F8047B043C032C45F8047FD6
:1058E000F8D8AEF1040424F0030404342144234422
:1058F00002F0030262B1013B0A4411F8014B8A42F3
:1059000003F8014FF9D1F0BD0346F3E70346F2E790
:10591000F0BD7246EEE700BF704700BF704700BFA2
:10592000002900F094802DE9F04F0C46154683B015
:10593000804605F10B06FFF7EFFF54F804EC162E36
:105940002EF00307A4F108093CD810221646B542F0
:105950003DD8974243DAC64B09EB07009968884265
:1059600000F0C380436823F0010101444968C9077E
:105970004DD51EF0010F00F09B8029464046FFF7F1
:1059800069FC054600283BD054F8043CA0F108020D
:1059900023F001034B449A4200F02B813A1F242A42
:1059A00000F21881132A00F2EB80034622461168A8
:1059B00019605168596092689A6021464046FFF725
:1059C00039F91DE026F00706002E3246BFDA002521
:1059D0000C232846C8F8003003B0BDE8F08F2546F8
:1059E000BB1B0F2BD9F804201DD802F001023A434B
:1059F00009EB0701C9F804204B6843F001034B6031
:105A00004046FFF78BFF284603B0BDE8F08F23F038
:105A10000303F91891421DDBC36882682546D360F1
:105A20000F469A60DCE702F0010209EB060143F041
:105A300001033243C9F804204F444B607B680831AE
:105A400043F001037B604046FFF7F4F8D8E71146C6
:105A5000FFF700BC1EF0010F8FD154F8081CA9EB12
:105A6000010ADAF8041021F003010B443B4493428D
:105A700026DB5546C16880683A1FC160886055F8CA
:105A8000080FDAF80C10242AC160886026D8132A7F
:105A900040F2818021681B2ACAF808106168CAF8A0
:105AA0000C1000F2AD8004F108000AF1100274E05D
:105AB00054F8083CA9EB030ADAF8041021F00301BA
:105AC0007B189342FFF659AF5546DAF80C1055F89B
:105AD000080F3A1F242AC1608860D8D92146284679
